:100000000C94E5020C9402030C9402030C9402037A
:100010000C9402030C9402030C9402030C9402034C
:100020000C9402030C9402030C9477340C944F3517
:100030000C942C340C9402030C9402030C940203D1
:100040000C9402030C9402030C9402030C9402031C
:100050000C9402030C9453340C9402030C9402038A
:100060000C9402030C9402030C9402030C940203FC
:100070000C9402030C9402030C9402030C940203EC
:100080000C9402030C9402030C9402030C940203DC
:100090000C9402030C9402030C9402030C940203CC
:1000A0000C9402030C9402030C94020305010980D2
:1000B000A101850319012AB700150126B700950192
:1000C00075108100C0050C0901A101850419012AE0
:1000D000A002150126A002950175108100C005013E
:1000E0000906A1018506050719E029E71500250184
:1000F0009508750181020507190029EF15002501F2
:1001000095F075018102050819012905950575010C
:100110009102950175039101C00660FF0961A1017B
:100120000962150026FF00952075088102096315F4
:100130000026FF00952075089102C005010906A15F
:1001400001050719E029E7150025019508750181CA
:10015000029501750881010507190029FF15002680
:10016000FF0095067508810005081901290515008D
:100170002501950575019102950175039101C00056
:10018000000000000000000000000000000000006F
:10019000000000000000000000000000000000005F
:1001A0000000007E0F00D4FFFFFFC70000007800B2
:1001B000000000000000002A2B28000000000000C2
:1001C0000000000000000000000029000000002CDA
:1001D0001E3420212224342627252E362D37382779
:1001E0001E1F202122232425263333362E37381F85
:1001F0000405060708090A0B0C0D0E0F1011121347
:100200001415161718191A1B1C1D2F3130232D35E4
:100210000405060708090A0B0C0D0E0F1011121326
:100220001415161718191A1B1C1D2F3130354C09BF
:10023000025B00030100A0FA0904000001030101B0
:100240000009211101000122440007058103080073
:10025000010904010002030000000921110100014D
:100260002222000705820320000107050303200066
:10027000010904020001030000000921110100012D
:10028000226D000705840320000112010002000016
:100290000008EDFE00000001010203011C037600CE
:1002A000690061006C003A006600360034006300AB
:1002B0003200620033006300000018033300620064
:1002C000790032005F0072006F00740061007200FC
:1002D0007900000014034E0061007300740079007F
:1002E0004A00610063006B0000000403090404007D
:1002F0000500060000000700080009000A000000D1
:1003000000000000000000000000000000000000ED
:1003100000000000000000000000000000000000DD
:1003200000000000000000000000000000000000CD
:1003300000000000000000000000000000000000BD
:1003400000000000000000000000000000001E008F
:100350001F0000000000000000000000000000007E
:100360000000000000000001010101010101010184
:100370000202020202020202020303030303030356
:100380000304040404040404050505050506060623
:100390000606070707070708080808090909090AE0
:1003A0000A0A0B0B0B0C0C0C0D0D0D0E0E0E0F0F85
:1003B0000F10101111111212131314141515161613
:1003C0001717181819191A1A1B1B1C1D1D1E1E1F82
:1003D0002020212222232424252626272829292AD1
:1003E0002B2C2D2D2E2F30313232333435363738F9
:1003F000393A3B3C3D3E3F404142434445464748F5
:10040000494A4C4D4E4F50515354555658595A5BCA
:100410005D5E5F616264656668696B6C6D6F70726A
:10042000737577787A7B7D7E8082838587888A8CD6
:100430008E8F91939596989A9C9EA0A2A3A5A7A90A
:10044000ABADAFB1B3B5B7BABCBEC0C2C4C6C9CB01
:10045000CDCFD1D4D6D8DBDDDFE2E4E7E9EBEEF0B7
:10046000F3F5F8FAFDFFFD377A585A000004E6D696
:10047000B4460200210116000000742FE5A3E0013C
:100480003700BB5D003D8889C65436C3174FE4D2A0
:100490001B819C67333998BF14DFAFCB0A89149650
:1004A00061DB3FCED7BD69111EB45E19AAA4A76E49
:1004B000E07236DFCCE9005DC76ED4C09DA1F7CCF9
:1004C000C985A2E208357C20B991B3A84FFB280763
:1004D000EEC0A5213E9A72A2890BDD9647F504A5D0
:1004E0004B5CFF3F29EA63D7375FEF1B6B0B718AC9
:1004F000287C5C2EB749E7B3642E67E74822D717FC
:100500007E6F4E13B5B72E7DBF52703FFCC7714A48
:10051000B8BFC1200374E2877B84D9D0895CD52819
:10052000A0988BF0D6DD5D456694944CECF3059570
:100530002A7FA9713A2094072C35BF54C2ADF8E444
:100540000000AD5ACA1E5711FD340001D701B80290
:100550000000E1634C2AB1C467FB02000000000404
:10056000595A0000000001001900020001000400B7
:100570000200050003000600040007000500080053
:1005800006000B0007000C0008000D0009000E001B
:100590000A000F000B0010000C0014000D001500E5
:1005A0000E0016000F00190010001A0011001F00A5
:1005B0001400200015002300160025001700290054
:1005C00018002B0012002C00130011241FBECFEFC7
:1005D000DAE0DEBFCDBF11E0A0E0B1E0E4EBFEE683
:1005E00002C005900D92A63BB107D9F724E0A6EB17
:1005F000B1E001C01D92AA35B207E1F70E94762B47
:100600000C94D5360C9400009C01FB019A95811541
:100610009F4120F5D901AA27B270832F8170B901BB
:1006200066277470A9014427587034FF0DC0829565
:10063000807FAB2B09F08062672B09F08064452B2B
:1006400009F0806809950895AB2B09F08260672B4B
:1006500009F08460452BB1F38860F4CF80E0F2CFDD
:10066000982F82958F70882311F0982F84E0292F7E
:1006700026952695222311F08E5F922F9695911143
:100680008F5F0895809356040895809357040895CA
:1006900021E030E001C0220F8A95EAF780915704EB
:1006A000822B0E944503089521E030E0A90102C099
:1006B000440F551F8A95E2F7CA018095909157041F
:1006C00089230E94450308959B01677091E001C052
:1006D000990F6A95EAF763E0369527956A95E1F7F1
:1006E000B901660F771F260F371FFA01E20FF31FBC
:1006F00040E050E0682F70E08191DF0111979B018D
:10070000042E02C0369527950A94E2F721702195B0
:100710002827292328272C934F5F5F4F433051050B
:1007200059F708959C01A82FA77083E03695279567
:100730008A95E1F7C901880F991F820F931FFB016A
:10074000E80FF91F40E050E080E0219130E00A2EF0
:1007500002C0369527950A94E2F721703327042EBC
:1007600001C0220F0A94EAF7822B4F5F5F4F43309C
:10077000510559F70895282F862F903F71F0923038
:1007800068F4243050F434E0939FB0011124620FD8
:10079000711D4CE453E00E94640308959C5F923005
:1007A000E0F7622F70E049E453E0F5CF282F903F47
:1007B000B1F0923068F4843090F434E0939FC0013B
:1007C00011246CE473E0820F911D0E94920308953E
:1007D0009C5F923020F469E473E090E0F6CF80E013
:1007E00008959091570421E030E0F90101C0EE0F27
:1007F0008A95EAF7D90102C0AA0FBB1F6A95E2F7F2
:10080000EA2B01C0220F4A95EAF7892F8E23E813BD
:1008100005C0892F822B0E94450308952095822FC1
:100820008923F9CF8091F7029091F602981301C0C5
:1008300008958F5F8770FACF9091CC0380958923BC
:100840008093CC03282F2770211111C0891779F0CC
:100850009091590492FF0BC08695869586950E94CB
:1008600054031092CC031092CE031092CD0308953E
:10087000982F90958091C90389238093C903089587
:100880008091C803882331F01092C8031092D003DE
:100890001092CF030895803E9105D1F1C8F48133C1
:1008A000910509F47FC048F48932910509F46FC0BD
:1008B0008A32910509F47DC0089589339105E1F0EC
:1008C00082389105C9F08533910509F45BC008951C
:1008D000843E9105D1F148F4823E910531F1833E89
:1008E000910541F181EE90E00895863E9105C1F1B8
:1008F000873E9105E1F1089520915804237021115C
:1009000065C02091590423FF14C089E290E0089546
:100910002091580420FD43C03091590430FF09C094
:1009200024FF4EC080E090E008952091580422FDFD
:10093000F7CF08952091580422FD45C03091590405
:1009400030FD44C024FFF5CFEDCF2091590421FFA5
:10095000F0CF8091580484FDE5CF87EE90E00895B4
:100960002091580423FFE5CF24FDDCCFF6CF209162
:10097000580423FD2EC03091590431FFE3CF84EE9B
:1009800090E008952091580425FFD3CFBECF209149
:10099000580425FD21C02091590423FFCACF89E3C3
:1009A00090E008952091580426FFC3CF8AE290E09A
:1009B00008952091580426FFBCCF81E390E008956C
:1009C00083EE90E0089582EE90E0089580EE90E04E
:1009D000089586EE90E0089585E390E0AACF909187
:1009E000580492FF10C041E0282F2471243009F0F0
:1009F00040E031E0282F2871283009F030E043171B
:100A000011F02CE0822793FF10C041E0282F2471C1
:100A1000243109F040E031E0282F2871283109F015
:100A200030E0431711F02CE082273091590430FF59
:100A300010C051E0282F2171213009F050E041E031
:100A4000282F2871283009F040E0541711F029E0D0
:100A5000822731FF10C041E0282F2171213109F098
:100A600040E031E0282F2871283109F030E04317A9
:100A700011F029E0822794FD877E08951F93CF937C
:100A8000DF930E944B04EC01811522E5920708F0E8
:100A900053C0811540E5940708F0DDC0803E910504
:100AA000F8F48D3C910508F0AEC0883A910580F4C9
:100AB000853A910508F099C08130910521F004979D
:100AC000813A910550F4CE01DF91CF911F910895A5
:100AD000885A91094B9708F48BC0C0E0D0E0F3CF5F
:100AE000811550E49507F8F4C11580E2D80708F0A5
:100AF000CBC0C83ED10538F3CE019A9581159F41F0
:100B000060F78D2F0E94EF04182FCE0199270E94C5
:100B10004B04212F30E0322F2227E901CC27DF714F
:100B2000C82BD92BD0CF99270E944B04CC27DF703C
:100B3000C82BD92BD06AC7CF803842E59407C8F5B7
:100B4000803652E5950708F067C0C03482E5D807C3
:100B5000B0F08C2F86958695877020E2829FC00129
:100B60001124C37021E030E0A90102C0440F551FD9
:100B7000CA95E2F7EA01C82BD92BDC68A4CFC032B2
:100B800052E5D50708F041C08C2F8695869520E266
:100B9000829FC0011124C37021E030E0A90102C08E
:100BA000440F551FCA95E2F7EA01C82BD92BDD681F
:100BB0008ACF803C52E5950760F48F71C03AD245E8
:100BC00008F03FC090E0982F8827EC01C46FD06AEE
:100BD0007ACF805C9245809708F07FCFDC2FCC27BE
:100BE000CC27DF71C06FD06A6ECFA497D0646BCF73
:100BF000C85AD0E0CC0FDD1FC158DE4F0990D88114
:100C0000C02DD46460CFD0655ECFCF71D0E0DC2F33
:100C1000CC27C16FD06A57CF86958695877020E222
:100C2000829FC0011124C37021E030E0A90102C0FD
:100C3000440F551FCA95E2F7EA01C82BD92BDA6891
:100C400042CF0E94EF04C82FD0E0DC2FCC27CC2766
:100C5000DF71D06238CF8F710E94EF0465E0D695C6
:100C6000C7956A95E1F7CF70D0E0DC2FCC27282F0D
:100C700030E084FF05C054E0220F331F5A95E1F79E
:100C8000C22BD32BD0691FCF8D2F8F710E94EF0401
:100C9000182FCE0199270E944B04212F30E0322FCC
:100CA000222722273F71282B392BE901D2CF80E060
:100CB0000895F894E82FE295EF70F0E041A18F706D
:100CC00021E030E0B90102C0660F771F8A95E2F794
:100CD000CB01962F9095942391A392A1892B82A367
:100CE00078940895A0E0B0E0E8E7F6E00C94F435DD
:100CF000E82FF0E0EA59FC4F711109C0E4918E2F02
:100D00007E2F6E2FCDB7DEB7EAE00C941036262F7B
:100D100030E0C72FD0E0F491EF2F86E0829F800172
:100D2000839F100D1124EE24EA94F12CC801B70121
:100D30000E949835AB01220F331F65E5649FC00107
:100D4000659F900D1124281B390B822F880F280FC7
:100D5000C7018C1B9D0BF89FD001F99FB00D11248A
:100D60008B2F2C9FB0012D9F700D1124672F77279B
:100D70005701A61AB70AFA9D6001FB9DD00C1124F9
:100D80007D2D5701A21AB10895012C9F50012D9F6E
:100D9000B00C3C9FB00C1124AB2CBB24EA18FB0810
:100DA000FE9DE001FF9DD00D112443305105C1F09F
:100DB0000C3F93E0190750F44130510509F4A1CFDD
:100DC0004230510589F07E2FED2F9BCF44305105E5
:100DD00071F046305105B9F3EB2F8D2D7F2F91CF58
:100DE000ED2D7B2F8F2F8DCF7B2F8D2F8ACF7D2FBA
:100DF000EB2FF8CF9C0180E090E0269F812D369F5D
:100E0000800D911D112408959C018230910508F4F4
:100E100008959FEF213E8EE1380740F4C90145E077
:100E2000969587954A95E1F798E0980F61E0E62F4F
:100E3000E90FFF27FF1FAF0155954795842F449F6A
:100E4000F001459FF00DF00D11242E173F0738F4E7
:100E50009FEF940F961758F78FEF860F08954F3F27
:100E6000E9F361E0640FF6CF409103015091040172
:100E700025E038E0429FC001439F900D529F900DA6
:100E80001124875E994C9093040180930301890F8C
:100E90000895982FE82F96FDE0958E2F8F7096FD80
:100EA0008F5FE695E695E695E670F0E0E95BFE4F2C
:100EB0002181289F202D812D112422952F7082952C
:100EC000807F282B8081820F97FD8195805808951F
:100ED000FC019B01009719F4832F80780895AC01E1
:100EE00097FF04C044275527481B590BB901640FCD
:100EF000751F37FD0FC0C901841B950BA5E0880F36
:100F0000991FAA95E1F70E94AC3580E2861BF7FD98
:100F100081950895CB0165E0880F991F6A95E1F7E7
:100F2000BA01621B730B0E94AC3580E6EFCF1F93B2
:100F3000172F922FE42FF0E0EE0FFF1FE359FE4F23
:100F4000408124EE429F412D1124E72FF0E050E034
:100F50009A01245E3F4F291B310937FF03C03195A9
:100F60002195310993E0220F331F9A95E1F7E21B97
:100F7000F30BF7FF02C0E0E0F0E07E2F719F712DD0
:100F800011241F9108951F93182F822FE42FF0E052
:100F9000EE0FFF1FE359FE4F408124EE429F412D8B
:100FA0001124E12FF0E050E09A01245E3F4F281B0E
:100FB000310937FF03C031952195310983E0220FB4
:100FC000331F8A95E1F7CF01821B930B9C0197FF9A
:100FD00002C020E030E0219F212D1124822F1F919B
:100FE0000895EF920F931F93CF93DF93D62F172F70
:100FF000C82FBA01C9010E19010F0E946807702F8E
:10100000781B719F712D11246D2F8C2FDF91CF9143
:101010001F910F91EF900895EF920F931F93CF932D
:10102000DF93D62FC72F182FBA01C9010E19010F50
:101030000E946807081B019F012D11246D2F7C2F32
:10104000802FDF91CF911F910F91EF900895622F24
:101050000895E42FF0E0EE0FFF1FE359FE4F60818B
:10106000621B0895E42FF0E0EE0FFF1FEB59FE4FD7
:101070006185621B0895322F50E0FA01EE0FFF1FC9
:10108000EB59FE4F9185905297FD9195440F551F56
:10109000FA01E359FE4F2081231B330B290F311D29
:1010A00097FD3A95620F0895EF920F93CF93DF93D8
:1010B000D72FC82FBA01C9010E190E946807602FE7
:1010C000681B7D2F8C2FDF91CF910F91EF900895AA
:1010D0000F931F93522F10E0F801EE0FFF1FEB59F3
:1010E000FE4FA185A052BB0B9D015203F001539FFF
:1010F000F00D1124000F111FD801A359BE4F2C91E0
:101100002057330B4203D001439FB00D11249F01A0
:101110002A0F3B1F37FF02C021583F4F220F232FBA
:10112000221F330B620F1F910F9108950F931F938E
:10113000522F10E0F801EE0FFF1FEB59FE4FA18573
:10114000A052BB0B9D015203F001539FF00D1124DF
:10115000000F111FD801A359BE4F2C912057330BFC
:101160004203D001439FB00D11249F012A0F3B1F62
:1011700037FF02C0215C3F4F96E0359527959A9541
:10118000E1F7620F1F910F9108954095282F429F1C
:10119000412D1124842F0895409520E4429F412D34
:1011A0001124640F0895EF92FF920F93E00EF11C4B
:1011B000F90137FF03C0F195E195F10924E0EE0F45
:1011C000FF1F2A95E1F7EF3FF10519F014F0EFEF5B
:1011D000F0E09A0157FF03C031952195310994E061
:1011E000220F331F9A95E1F72E173F070CF4F901F0
:1011F000EE0DFF1DEF3FF10519F010F0EFEFF0E0FD
:101200002E2F2095382F320F08F43FEF832F0F91A8
:10121000FF90EF900895EF92FF920F93972FFA01AE
:10122000B9019701093430F4201B31092F3F3105F2
:1012300019F010F02FEF30E03896719740F0AB01C5
:10124000485F5F4F4131510510F02FEF30E020959E
:10125000382F320F08F43FEF832F77FF02C06D5F06
:101260007F4F75956795759567952091C103620FBE
:10127000792F0F91FF90EF900895EF92FF920F93C7
:101280009701201B31092F3F310519F010F02FEF86
:1012900030E02095382F320F08F43FEF832F0F9165
:1012A000FF90EF9008950E94180A08950E94390A4D
:1012B0000895880F92E0980F973008F096E008950F
:1012C000962F2091C00323702223A1F0882399F048
:1012D0008A3198F48F73880F880F2091C003237090
:1012E000822B8093C003109212016091BF03692B7F
:1012F0006093BF03089581E0EECF89E1ECCF809148
:10130000C003869586958F5F8A3108F081E061E0A1
:101310000E94600908959091C003969596958FEF6D
:10132000890F913009F489E161E00E946009089514
:10133000922F2091C0032370222359F08093C10380
:101340006093C2034093C3032091BF03292B2093D2
:10135000BF030895E0ECF3E0818190E021E0438158
:10136000628108960E9498090895E0ECF3E081817B
:1013700021E0438162818850990B0E949809089569
:10138000E0ECF3E0628120E1620F08F46FEF81810D
:1013900021E0438190E00E9498090895E0ECF3E099
:1013A000628120E1621B08F460E0818121E04381D9
:1013B00090E00E9498090895E0ECF3E0438120E179
:1013C000420F08F44FEF818121E0628190E00E949A
:1013D00098090895E0ECF3E0438120E1421B08F412
:1013E00040E0818121E0628190E00E9498090895A7
:1013F000E0ECF3E0248130E1230F08F42FEF2483A5
:101400008091BF0381608093BF030895E0ECF3E017
:10141000248130E1231B08F420E024838091BF0362
:1014200081608093BF030895849A10922B020895DF
:10143000CF93DF93DC01FC01EE0FFF1FEF01CA0F1A
:10144000DB1FC75EDD4F8981861306C08881841348
:1014500003C08A81821751F081E080932B02EA0F4A
:10146000FB1FE75EFD4F618340832283DF91CF91B5
:101470000895FF920F931F93CF93DF93182F062F9A
:10148000F42EC0E0D0E02F2D402F612FCE010E941E
:10149000180A2196C630D105B1F7CDB7DEB7E5E021
:1014A0000C941536FA01882311F009950895FB0173
:1014B000FCCF81152CE7920741F42091C3023091B3
:1014C000C402232B11F480E090E00895EDE5F3E0F1
:1014D00080E090E061EF75E248E156E22DE836E207
:1014E00077836683518740873387228797878687EC
:1014F000019670968630910599F708952AB181E09A
:1015000090E0AC0102C0440F551F6A95E2F7842FAA
:10151000809582238AB98BB1842B8BB9089589B1C8
:1015200090E002C0959587956A95E2F781700895DD
:101530001092E8031092E7038091D603811104C052
:101540001092D5031092D7038091DD03811104C05E
:101550001092DC031092DE030895AC013091EA038F
:101560006091E903232F621301C00895822F90E058
:10157000FC01EE0FFF1FE152FC4F0190F081E02DC6
:10158000E417F50791F467E0649FF001659FF00DA3
:101590001124EF52FC4F41E044832313E6CF019620
:1015A000837099278093EA0308950196282F23706A
:1015B000DACFFA01309709F009950895E091EC022D
:1015C000F091ED02309729F00190F081E02D09951E
:1015D000089580E00895A3E0B0E0E1EFFAE00C9414
:1015E000FC359C018091FC019091FD0182179307CD
:1015F000A1F03093FD012093FC01E091EC02F09109
:10160000ED02309751F083E089833B832A83008485
:10161000F185E02DCE01019609952396E2E00C9428
:101620001836A3E0B0E0E7E1FBE00C94FC359C0148
:101630008091FA019091FB0182179307A1F03093FA
:10164000FB012093FA01E091EC02F091ED0230975A
:1016500051F084E089833B832A830084F185E02D67
:10166000CE01019609952396E2E00C9418369091EC
:1016700011019923C1F09091580497FF14C0E82FED
:10168000E695E695E695803FF8F4F0E0E054FE4FED
:10169000877021E030E001C0220F8A95EAF782814D
:1016A000822B82830895AAEBB1E0EFEF90E02D91B9
:1016B000821751F0EF3F19F4211101C0E92F9F5F0C
:1016C0009630A9F7EF3F09F408950E2E000CFF0B9A
:1016D000E854FE4FE6CF909111019923E1F09091EB
:1016E000580497FF18C0E82FE695E695E695803FE9
:1016F000F0F4F0E0E054FE4F877021E030E0A90103
:1017000002C0440F551F8A95E2F7CA018095928165
:10171000892382830895EAEBF1E09191891303C054
:10172000DF0111971C9251E0E03CF507B1F70895F5
:101730002FB7F8948091300290913102A09132023B
:10174000B09133022FBF0895CF93DF93C091C903A7
:101750008091CB03C82B8091C803882339F10E9464
:10176000980B2091CF033091D003821B930B8838C4
:10177000934110F00E944004D091C8038091110160
:101780008823C1F08091580487FF14C08DE122ECBA
:1017900031E090E0F90140812F5F3F4F41119F5FA1
:1017A0008150C0F791110E944004CD2B8C2FDF9106
:1017B000CF91089585E02AEB31E0EBCF9091590469
:1017C00092FF10C098E0899F90011124622B6093D2
:1017D000CC030E9448030E94980B9093CE03809301
:1017E000CD0308950E94480308959091C803292FBE
:1017F0002823222361F0809589238093C8038823BE
:1018000039F00E94980B8093CF039093D0030895F2
:1018100080E090E0F8CFA4E0B0E0E1E1FCE00C94DF
:10182000FC358FB7F894209130023091310240910D
:1018300032025091330229833A834B835C838FBFFA
:1018400069817A818B819C812496E2E00C94183620
:101850009C014FB7F8948091300290913102A09191
:101860003202B09133024FBF821B930B089587E77A
:1018700097E7909301088093000888E19AE00FB6FB
:10188000F894A895809360000FBE90936000FFCFFE
:101890008091F90108950895FC019B018091EF0169
:1018A0009091F0018617970740F0672B29F48091FB
:1018B000E8008E778093E800C90140E0009741F48A
:1018C000411106C08091E80082FF2FC080E008959A
:1018D0002091C5022223A9F12530A9F12091E80029
:1018E00023FD2DC02091E80022FDECCF2091E800DF
:1018F00020FFE4CF3091F3002091F200009719F01F
:101900002830310558F041E02830310509F040E039
:101910002091E8002E772093E800D0CF41914093AA
:10192000F10001972F5F3F4FE9CF8091C5028823D7
:1019300041F0853041F08091E80083FFC3CF81E022
:10194000089582E0089583E008958091E90187FF7A
:1019500013C08091E80082FF06C08091E8008B7779
:101960008093E80004C08091C5028111F2CF0895F0
:101970008091C5028823D9F38091E80080FFF8CFD9
:101980008091E8008E77ECCF2091E4003091E50063
:1019900095E6A9018091EC008170882331F0809157
:1019A000E80080FF06C080E008952091E80022FD55
:1019B0001BC08091C502882391F0853091F0809101
:1019C000EB0085FD10C02091E4003091E500421746
:1019D000530701F391509111DCCF84E0089582E028
:1019E000089583E0089581E00895E8EDF0E08081B6
:1019F0008E7F80831092E2001092DA001092E10054
:101A0000A0EEB0E08C9181608C9380818F77808391
:101A100019BCA7EDB0E08C918E7F8C9380818F7E76
:101A200080831092E8010895EF92FF920F931F9325
:101A3000CF93DF937C01809100010E945909C82F48
:101A4000192F6091C4036695669521E0620F08F432
:101A50006FEF80914002909141020E94FA06082F98
:101A6000D0E0C11748F081E0163008F080E0CDB733
:101A7000DEB7E6E00C941436FE01EB59FE4F848984
:101A8000909101018923882391F06091C1037091A5
:101A9000C2038091C303202F4C2FF70109950E94A8
:101AA0007206462F672F282FCE010E9453092196D8
:101AB000D8CFA0E0B0E0EFE5FDE00C94F0353C01BC
:101AC000809100010E945909C82F192F6091C40309
:101AD000669580914002909141020E94FA06F82E8C
:101AE000D0E0CE01880F991F9C012B593E4F690110
:101AF000C11748F081E0163008F080E0CDB7DEB7BE
:101B0000EEE00C940C36FE01EB59FE4F8489909167
:101B100001018923882379F1F6018085282F205738
:101B2000330B59018185E82FE052FF0B4F01AA9C2E
:101B30009001AB9C300D300D1124EE9FC001EF9F42
:101B4000900D900D1124820F931F0E940407082FFF
:101B50006091C1037091C2038091C303EF2C940183
:101B6000A501F30109950E947206462F672F282FC1
:101B7000CE010E945309F2E0CF0ED11C2196B8CFBE
:101B8000A4E0B0E0E6ECFDE00C94F6356C01809149
:101B900000010E9459098B83F92E6091C403669558
:101BA000669580914002909141020E94FA06182F9A
:101BB00080E4810F0E94490780588983812F0E9409
:101BC000490780588A839B81892F90E09C838B836F
:101BD0009B819F1548F081E0E5E0EF1508F480E077
:101BE0002496E8E00C941236EB81FC81EB59FE4F11
:101BF00084899091010189238823A9F06091C10310
:101C00007091C2038091C303E12E0B812A81498127
:101C1000F60109950E947206462F672F282F8B81A7
:101C20009C810E9453098B819C810196CFCF1F9389
:101C3000CF93DF93EC01FC01EB59FE4F8489909127
:101C4000010189238823B1F00E943407182F0E94D4
:101C5000340720E8829FC00111247FE7790F612FAC
:101C60008091C3030E947206462F672F282FCE0152
:101C70000E945309DF91CF911F910895A0E0B0E039
:101C8000E4E4FEE00C94F5358C01809100010E94A3
:101C90005909C82FD92E2091C40331E0230F08F42D
:101CA0002FEF30E040E050E06FEF7FEF80E090E01A
:101CB0000E94C0357901D0E0C22EBF2C2C2FCD154B
:101CC00050F081E0F5E0FD1508F480E0CDB7DEB717
:101CD000E9E00C941136FE01EB59FE4F8489909196
:101CE00001018923882319F1409146024150042EB5
:101CF000000C550B47FF1DC08C2D9B2D6091C4031C
:101D000021E0620F08F46FEF0E94FA06AC016091C7
:101D1000C1037091C2038091C303F80109950E9429
:101D20007206462F672F282FCE010E945309219655
:101D3000C5CFFA01EA5BFD4F818982130AC0FA011F
:101D4000EE0FFF1FEA5BFD4F818D928D8E159F0573
:101D5000A8F241505109CECFA8E0B0E0E2EBFEE09E
:101D60000C94EC35282E69837A83809100010E94BF
:101D700059099B83209146022C83E82FF0E0F887D5
:101D8000EF83CF01880F991F9C012B593E4F6901AA
:101D9000822D90E0FC013196FE83ED838B819F8143
:101DA000981748F081E0EB81E63008F080E0289653
:101DB000E2E10C940836EF81F885EB59FE4F8489F7
:101DC0009091010189238823F1F04090C103509044
:101DD000C2032D813E812A5B3D4F3901322C10E038
:101DE000FC813F16D0F02091C303129F112D1124C6
:101DF000B201812F0E947206462F672F282F8F81F4
:101E000098850E9453092F8138852F5F3F4F38876F
:101E10002F8332E0C30ED11CC1CFF30181913F016A
:101E2000F601A084A81ABB088184F3018781881A6F
:101E30009908AA9C9001AB9C300D300D1124889C10
:101E4000C001899C900D900D1124820F931F0E9458
:101E50000407082F6091C40321E0620F08F46FEFBC
:101E6000F301EE0FFF1FE654F240858996890E9428
:101E7000FA067C019401A501B201812FE981FA8162
:101E800009952B01182F3394ABCF982FE42FE270D4
:101E90009093E900891308C0762F242F50E0E111B8
:101EA00011C091E0980FF4CF7091EC002091ED00FB
:101EB0005091F00021FD06C09F5F973049F7809355
:101EC000E90008953091EB003E7F3093EB003091B4
:101ED000ED003D7F3093ED003091EB0031603093A9
:101EE000EB007093EC002093ED005093F0002091F4
:101EF000EE0027FDE1CF0895A0E0B0E0E2E8FFE0CA
:101F00000C94F635C8EDD0E088818F7E8883E7EDAC
:101F1000F0E080818160808384E082BF81E08093F3
:101F2000E80188818E7F888302EE10E0F80110823C
:101F30001092DA0081EEC82ED12CF6011082888131
:101F40008F77888388818068888388818F7D888364
:101F500019BC1092C5021092E70110927102109202
:101F6000E60190EEE92EF12CF70180818B7F8083D2
:101F700088818160888342E060E080E00E94450FB4
:101F8000F60180818E7F8083F8018081816080836B
:101F9000808188608083F70180818E7F8083888143
:101FA00080618883CDB7DEB7E8E00C941236E0910B
:101FB000F7029091F60229E0E91302C080E008954B
:101FC000AE2FB0E02E9FF0011124E850FD4F31817B
:101FD000361306C03081381303C03581341304C072
:101FE000FD013196E770E8CF81E0089580912B02E2
:101FF000882339F131B33F7E21B320614FB7F89484
:1020000089E192E0FC010196508168E021BB00006B
:1020100000C057FF31BB550F000000C000C000C01A
:1020200031BB00C06A9591F752E08B32950751F7AA
:102030004FBF8FE594E00197F1F700C000001092C8
:102040002B0208950F931F93CF93DF93EB018A0127
:102050009091C502943079F58093E9008FEF9091CB
:10206000E80095FD07C095ED9A95F1F700008150C5
:102070008111F5CF8091E80085FF1DC00E94C40C3E
:10208000811114C08091E80085FD06C08091E800B0
:102090008E778093E800F2CF88818093F100015021
:1020A00011090115110511F02196ECCF8091E8007E
:1020B0008E778093E800DF91CF911F910F91089563
:1020C000CF93DF93D82FC92F48E050E0682F792FA6
:1020D00081E00E94221088E0ED2FFC2FA1EFB1E0FB
:1020E00001900D928A95E1F7DF91CF910895BC019F
:1020F00040E250E084E00E9422100895BC0143E0D9
:1021000050E084E00E94221008959091590492FBBF
:10211000222720F9281779F080FB92F9909359042F
:10212000609158047091590484E090E00E94B736A1
:1021300082E00E941C0408951F93CF93DF93C62F63
:10214000122F632F8630E0F4C230D0F44430C0F454
:1021500028E0C29FE001112450E0440F551FC40F36
:10216000D51F20E1829FC0011124C80FD91FCE01C5
:1021700088960E949936612FCE0189960E949936E1
:10218000DF91CF911F9108951F93CF93DF93962FE7
:10219000122F632F8630A0F4911112C094E0899F12
:1021A000E0011124C857DF4FCE01442369F00E949B
:1021B000993681E090E0612F8C0F9D1F0E94993627
:1021C000DF91CF911F91089502960E94993683E086
:1021D00090E0F1CFCF93DF93C0EFD0E060E0CE018D
:1021E0000E9499362196C11584E0D807B9F7DF918E
:1021F000CF910895882381F06BE684E290E00E94FD
:10220000993664E885E290E00E94993661E986E2B9
:1022100090E00E94993608956FEF84E290E00E946A
:1022200099366FEF85E290E00E9499366FEFEFCF1D
:102230000F931F93CF93DF93863038F5623028F5E4
:10224000443018F528E0629FE001112450E0440F6B
:10225000551FC40FD51F30E1839FC0011124C80F43
:10226000D91FCE0188960E947B36082F10E0102FD0
:102270000027CE0189960E947B369801282BC90140
:10228000DF91CF911F910F91089580E090E0F8CFFA
:102290000F931F93CF93DF93863048F5611127C0CA
:1022A00024E0829F8001112408571F4FC801442356
:1022B000A1F00E947B36C82FD0E0DC2FCC2781E034
:1022C00090E0800F911F0E947B369E01282BC90150
:1022D000DF91CF911F910F91089502960E947B3656
:1022E000C82FD0E0DC2FCC2783E090E0EACF80E05D
:1022F00090E0EECF462F672F2091C8023091C9029F
:10230000232BC9F4703F39F4403FA9F48091C602F1
:102310009091C7020895723038F4443060F48630EA
:1023200050F40E94181108957D3F41F4411103C0FB
:1023300041E0863048F080E090E008957C3FD9F796
:102340004111F9CF8630B8F760E00E944811089536
:10235000A0E0B0E0EEEAF1E10C94F7357C010091E9
:10236000570480915604082BC5E0D0E010E0C80166
:102370000C2E02C0959587950A94E2F780FD09C05E
:102380002197A8F7D12C8D2DCDB7DEB7E7E00C94BF
:102390001336DC2EB7018C2F0E947A110E943E0565
:1023A000019771F3F0CF0F931F93CF93FC018781B7
:1023B0009085009799F4858100811181882391F09F
:1023C000662381F0C8010E94A811C82F682FC80198
:1023D0000E94BB03B8018C2F0E947A11CF911F91EC
:1023E0000F910895C8010E94D603C82FF3CFCF9351
:1023F000DF93D82FC92F0E94A8116D2F7C2F0E9428
:102400007A110E943E05DF91CF910895FC018481ED
:102410008823B1F0878190850097A1F00E943E0546
:10242000282F92959F709630B9F088F4925F9F7034
:10243000923030F481E0203FA1F058F4283E58F06B
:1024400080E009C0808191810E94F711E9CF9A5FF5
:10245000EECF243FA9F7089581E0283E18F0213FF0
:10246000F9CF0895089584E290E00E947B368B3680
:1024700089F485E290E00E947B36843859F486E244
:1024800090E00E947B3691E0813909F090E0892F3D
:102490008170089580E0FCCF80911101882359F16B
:1024A0008091580487FF27C00E94A40B8093C1012C
:1024B00040E250E06CEC72E080EC91E00E944E361D
:1024C000892BC1F080E2E0ECF1E0ACECB2E00190ED
:1024D0000D928A95E1F7E091EC02F091ED023097D0
:1024E00049F086E08093C0010480F581E02D80EC06
:1024F00091E0099508950E94A40B8093B80148E0EB
:1025000050E06EEE72E088EB91E00E944E36892B2F
:1025100089F388E0E8EBF1E0AEEEB2E001900D92D5
:102520008A95E1F7E091EC02F091ED02309711F31A
:102530000280F381E02D88EB91E0DBCFCF93C82FB1
:102540008823B1F18CEF8C0F813AA0F580911101B5
:10255000882301F18091580487FF1CC0EC2FE69579
:10256000E695E695F0E0E054FE4F828190E04C2F36
:10257000477021E030E002C0220F331F4A95E2F796
:1025800082239323892B79F08C2F0E946B0B0E945E
:102590004C1209C0EAEBF1E08191C817A9F321E0E0
:1025A000E03CF207C9F78C2F0E94370B0E944C12B7
:1025B000CF91089580E28C0F883068F4C77081E075
:1025C00090E001C0880FCA95EAF7C091C903C82BF3
:1025D000C093C903EBCF8BE58C0F833038F42C2FDD
:1025E0002452330BC9010E94EB0AE2CFC85ACB3107
:1025F000F8F6EC2FF0E0EE0FFF1FE158FE4F808160
:1026000091810E94110BD4CF882339F19CEF980F50
:10261000913A28F40E946B0B0E944C12089590E2AC
:10262000980F983050F4877091E001C0990F8A9507
:10263000EAF7892F0E943804EFCF9BE5980F93307B
:1026400028F480E090E00E94EB0A0895885A8B31CC
:1026500020F480E090E00E94110B08951F93CF9327
:10266000DF93182FEB010E949E12209739F4812FDF
:102670000E940413DF91CF911F9108958FE99FE08D
:102680000197F1F700C000002197EFCF882339F0C0
:102690009091C903892B8093C9030E944C1208951D
:1026A000882321F00E9438040E944C120895882348
:1026B00039F09091CB03892B8093CB030E944C126D
:1026C0000895882341F080959091CB0389238093CE
:1026D000CB030E944C1208951092C90380911101FE
:1026E0008823C1F08091580487FF14C0E2ECF1E028
:1026F0008EE1DF011D928A95E9F780E090E00E946B
:10270000EB0A80E090E00E94110B1092CB030E9434
:102710004C120895EAEBF1E086E0EBCF0E946C13D7
:102720002FEF84E39CE0215080409040E1F700C00F
:10273000000088E19AE00FB6F894A89580936000B5
:102740000FBE90936000FFCFAAE2B0E0EAEAF3E1A7
:102750000C94FB3589EE91E0FC0101962091F1008B
:10276000208321E0813F9207B9F78091EA01893007
:1027700009F456C0C8F4823009F4B3C0833009F4B8
:1027800082C0813071F18091E80083FFE7C08091C1
:10279000E9019091EA019A3008F0E0C0E92FF0E0F9
:1027A000E952F94C0C94DF358A3009F489C08B303A
:1027B00051F78091E901813231F78091ED019091DB
:1027C000EE01892B01F78091E800877F8093E80074
:1027D0000E94A50C8091EB01809311010E946C1363
:1027E000D2CF8091E901813A71F68091E800877F2C
:1027F0008093E8008091ED019091EE01892B61F0CA
:1028000060E080E090E070E00E944C0C8091E80075
:102810008B778093E800B7CF68E081EF91E0F3CF4A
:102820008091E901813209F0AECF8091ED01909164
:10283000EE018D7F892B09F0A6CF8091E800877F7C
:102840008093E8008091E80082FF18C09091F30027
:102850008091F200029731F48091F100813011F003
:10286000863021F48091F1008093F9018091E80095
:102870008B778093E8000E94A50C85CF8091C502DC
:102880008111E0CF80CF8091E901813A09F07BCFBF
:102890008091ED019091EE01892B09F074CF809128
:1028A000E800877F8093E8008091E80080FFFCCFFC
:1028B000809111018093F1008091E8008E77D9CF4B
:1028C0008091E901813209F05ECF8091E800877F35
:1028D0008093E8000E94A50C8091EC018093E501B3
:1028E00052CF8091E901813A09F04DCF8091E80003
:1028F000877F8093E8008091E80080FFFCCF809183
:10290000E501D8CF803889F0823841F58091ED011A
:102910008F70873018F58093E9008091EB0085FB7C
:10292000882780F91092E90006C08091E601909115
:102930007102911182609091E800977F9093E80076
:102940008093F1001092F1008091E8008E7723C00F
:10295000811116C08091EB01813011F18091E80066
:1029600083FF0AC08091E800877F8093E800809110
:10297000EB0080628093EB00AA96E3E00C9417369C
:10298000823061F78091EB01882389F01092E90091
:102990008091E800877F8093E8000E94A50CDECF3D
:1029A00081E0933009F080E080937102EFCF809155
:1029B000ED018F702FEF280F263080F68093E9000D
:1029C0002091EB0020FFE2CF933031F48091EB00B7
:1029D00080628093EB00DACF9091EB00906190934E
:1029E000EB0021E030E0A90102C0440F551F8A9599
:1029F000E2F74093EA001092EA008091EB008860D1
:102A0000E8CF8111ABCF1091EB011F778091E300EC
:102A10008078812B8093E3008091E800877F80930A
:102A2000E8000E94A50C8091E80080FFFCCF809117
:102A3000E30080688093E30083E0111101C082E02D
:102A40008093C5028BCF8058823008F087CF4091A9
:102A5000EB015091EC014C3D83E0580799F583E080
:102A60008A838AE289834FB7F894DE01139620E0C7
:102A70003EE051E2E32FF0E050935700849120FFB5
:102A800003C082958F703F5F8F708A30C8F0895C79
:102A900090E08D939D932F5F243161F74FBF80911C
:102AA000E800877F8093E8006AE270E0CE0101963B
:102AB0000E944C0C8091E8008B778093E8004ECF09
:102AC000805DE6CF8091ED019091EE01252F3327B7
:102AD0002330310509F44AC078F52130310509F475
:102AE00083C08BE590E0EFE2F2E02230310509F09F
:102AF00035CF2091E800277F2093E8002091EF0157
:102B00003091F0018217930708F49C0140E02115F1
:102B1000310509F06EC041116CC08091E80082FD62
:102B2000C9CF8091C502882329F2853019F280919E
:102B3000E80083FFF2CFBECF2132310509F445C052
:102B40002232310509F00ACF8330910508F006CF13
:102B5000FC01EE0FFF1FEB5CFE4F0190F081E02DBA
:102B60008E5C9E4FDC018C9190E010C0CA019927C9
:102B7000423019F18330910568F4892BB1F4EAEE03
:102B8000F2E0E4918E2F90E0EAEEF2E0009709F493
:102B9000E5CEAFCF039709F0E1CEECE9F2E0E491A6
:102BA0008E2F90E0ECE9F2E0F1CFE4EDF2E0E49179
:102BB0008E2F90E0E4EDF2E0E9CFEAEBF2E0E49171
:102BC0008E2F90E0EAEBF2E0E1CF8330910508F040
:102BD000C5CEFC01EE0FFF1FE55CFE4F0190F081BA
:102BE000E02D89E090E085CF82E190E0EAE8F2E034
:102BF00080CF8091C502882309F45CCF853009F429
:102C000059CF8091E80083FD55CF8091E80082FD87
:102C100084CF8091E80080FF7ACF9091F30080917B
:102C2000F2002115310519F08830910550F041E08E
:102C3000089709F040E08091E8008E778093E800E3
:102C400066CF44914093F1003196215031090196AD
:102C5000E8CF803809F082CE8091E800877F8093AA
:102C6000E8008091E7018093F1006ECE811176CE6D
:102C70001091EB01123008F071CE8091E800877F4F
:102C80008093E8001093E7010E94A50C1123D1F076
:102C900084E08093C50242E061EC81E00E94450F30
:102CA00042E261EC84E00E94450F42E261EC82E086
:102CB0000E94450F42E260EC83E00E94450F809144
:102CC000C5024CCE8091E30087FDE2CF81E0E1CFE9
:102CD000CF93DF93EC014A855B856E857F850E94EB
:102CE000D90A9B8190958091CB0389238093CB0354
:102CF0008C810E9438040E944C1286E0FE011192E1
:102D00008A95E9F7DF91CF910895CF93DF93EC0196
:102D10008D8181FD17C082608D838091CB039B8163
:102D2000892B8093CB038091C9039C81892B80934D
:102D3000C9030E944C12488559856E857F85CE0156
:102D40000E94D90A10925A03109259038D8180FD76
:102D500003C0CE010E946816DF91CF910895A4E1CF
:102D6000B0E0E5EBF6E10C94EE356090C3027090B4
:102D7000C40281E090E09093C4028093C3023EE4D9
:102D8000C32E33E0D32E812C912C00E010E05401AF
:102D9000412C16C0F70125913491452D642D802FCB
:102DA0000E949C1022E0E20EF11C539434E0531276
:102DB000F1CF84E0A80EB11C41100BC04424439411
:102DC000C501880F991FFC01E251FD4F7F01512C75
:102DD000E1CFF6012591349141E060E0802F0E941F
:102DE000C410F60132962591349140E060E0802FC6
:102DF0000E94C4100F5F1F4FF4E0CF0ED11C28E0DB
:102E0000820E911C0630110509F0C1CF1A82198279
:102E10001C821B821E821D8218861F8288EC90E015
:102E20009A87898700EA10E04AE050E0B801CE01B5
:102E300001960E94BD36065F1F4F0C3D1105A1F79C
:102E40008E01055F1F4F8AE0F80111928A95E9F71C
:102E50004AE050E06CED70E0C8010E94BD364AE0E7
:102E600050E066EE70E0C8010E94BD367092C40268
:102E70006092C3026496E0E10C940A3680E00E94FE
:102E8000FA1060E087E290E00E9499360E94AF1647
:102E90000E94EA1081E00E94FA100895AAE0B0E0D2
:102EA000E4E5F7E10C94FA35EFEFF1E084E1DF01BE
:102EB0001D928A95E9F723ED33E08CE0D9011D924C
:102EC0008A95E9F701ED13E0D801ED93FC934AE010
:102ED00050E06CED70E0CE0101960E946B3688E008
:102EE000FE013196AFEFB1E001900D928A95E1F7C6
:102EF00089859A85F8019383828389E092E090879F
:102F000087834AE050E066EE70E0CE0101960E94B1
:102F10006B3688E0FE013196A9E0B2E001900D9297
:102F20008A95E1F789859A85D8011A969C938E93A4
:102F300019972A96E4E00C941636282FCB012630F8
:102F400070F44AE0249F90011124B90160567F4F2C
:102F50004AE050E00E946B3680E090E008958FEFE9
:102F60009FEF0895AAE0B0E0E8EBF7E10C94FC35A0
:102F70009C0197558F3F910509F070F4BE016F5F7A
:102F80007F4F822F0E949D17892B31F489859A8566
:102F90002A96E2E00C94183688EC90E0F9CFA0E095
:102FA000B0E0E5EDF7E10C94F735D62E172FC42FDE
:102FB000D22F8823A9F04093BD030E94980B9093D1
:102FC000E4018093E301C77081E001C0880FCA95D6
:102FD000EAF70E944613CDB7DEB7E7E00C9413364C
:102FE0008091BD0348133BC08091E3019091E401BF
:102FF0000E94280C7C018D2D912F0E94B217E8169B
:10300000F90668F5CD130EC060E070E0802F0E94D5
:103010002E13D77081E001C0880FDA95EAF70E947D
:103020005013D9CFC77011E0812F01C0880FCA9506
:10303000EAF70E94501380E28D0F883050F48D2FF4
:10304000877001C0110F8A95EAF7812F0E944613FD
:10305000DBCF60E070E0802F0E942E13BCCFC770E2
:1030600081E001C0880FCA95EAF7D9CFA2E0B0E0AD
:10307000ECE3F8E10C94F3351A8219828FE4C82E40
:1030800081E0D82E8E010F5F1F4F91E5E92E91E070
:10309000F92E5801F60121916F012F3F09F441C02B
:1030A000F894E22FE295EF70F0E031A12F7081E00B
:1030B00090E001C0880F2A95EAF7932F982B91A3EF
:1030C00092A18095892382A3789400C0E1E5F1E084
:1030D00031E0912C21912F3F09F445C0A22FA295F8
:1030E000AF70A05EB0E08C9190E02F7002C095951B
:1030F00087952A95E2F78170811135C0832F982A30
:10310000330F81E0E535F80729F7F6013197808123
:103110008F3F11F00E945906E0EAEA95F1F7F801B5
:1031200090820F5F1F4FEC14FD0409F0B3CF42E013
:1031300050E0B50184E492E00E944E36892BA9F05C
:1031400089819A81909345028093440281E0809323
:10315000E2010E94980B9093E1018093E001229696
:10316000EBE00C940F3680E0CACF8091E201882317
:10317000B1F38091E0019091E1010E94280C059744
:1031800070F342E050E064E472E081EC92E00E946F
:103190004E36892B41F080914402909145029093E4
:1031A000C2028093C1021092E201D9CFA0E0B0E048
:1031B000ECEDF8E10C94F535EC010881002309F4FD
:1031C000B0C0013009F04AC08981813079F48E01A4
:1031D0000E5F1F4F8A8160E070E0893311F460E573
:1031E00070E00E942E13E8012196E7CF823039F477
:1031F0008E010E5F1F4F8A810E949E12F4CF833092
:1032000039F48E010E5F1F4F8A810E940413EBCFA9
:10321000843011F02196E8CF2A81229680E090E058
:103220006AE0AE014F5F5F4F2053330B2A30310508
:1032300050F00097C9F2EFE9FFE03197F1F700C0D5
:1032400000000197F6CF689FF001699FF00D1124EF
:10325000C9018E0F9F1F2981EA01E3CFE02FF0E023
:10326000E155FE4FB490202F26952695269530E007
:10327000F901E156FE4FE4900770F12C002E02C0D8
:10328000F594E7940A94E2F7F1E0EF22FF24F901C4
:10329000E157FE4FC490D12C002E02C0D594C794A4
:1032A0000A94E2F781E0C822DD24F901E158FE4FDB
:1032B0001491E114F104B9F4C114D10419F560E0DA
:1032C00070E08B2D0E942E13E12FF0E002C0F595E7
:1032D000E7950A95E2F7E0FF87CF60E070E08CE2C7
:1032E0000E942E1381CF81EE0E949E12C114D10440
:1032F00049F460E070E08B2D0E942E1381EE0E9455
:103300000413E2CF86EE0E949E1260E070E08B2DE7
:103310000E942E1386EE0E940413E114F104A1F220
:10332000EDCFCDB7DEB7E9E00C941136A4E0B0E004
:10333000ECE9F9E10C94F0356C01DC0114968C9108
:10334000882309F4D0C161E0C6010E94D3118C0129
:10335000F6018581882319F18091590390915A03D0
:103360000097E9F008171907D1F0992774E0880F42
:10337000991F7A95E1F7FC01EE59FC4F20812460FA
:103380002083835A9C4FDC010D931C930E94851669
:103390001092CB0361E0C6010E94D3118C01F601AB
:1033A0008581882309F4BCC098013757203831053E
:1033B00008F050C1F02EFFE0F01708F483C18FEF42
:1033C00093E00E947B3681117DC100EF10E0F11087
:1033D00038C064E0E62EAE014F5F5F4F4A01D40172
:1033E000EE2D1D92EA95E9F75801FFEFAF1ABF0ADB
:1033F000C8010E947B368983882309F463C1813028
:1034000009F08AC0380122E0620E711CC5010E94D9
:103410007B36F82E8A83882309F454C18FEF8F0DF1
:103420008330E8F4C3010E947B368B83882319F034
:10343000C4010E94D618580143E0A40EB11C8501B6
:10344000CECF011524E0120709F43CC1C8010E9447
:103450007B360F5F1F4F8111F4CFFA94B8CF8BEFFB
:103460008F0D833058F5580153E0A50EB11CC301F0
:103470000E947B368B83882311F3C5010E947B3623
:103480008C83882381F08B819C818130AFEF9A07F8
:1034900010F0982F8827B6E0FB1651F0E7E0FE16F3
:1034A00051F00E94E4255801F4E0AF0EB11CC7CFE3
:1034B0000E947E25F8CF0E94B125F5CF24E053016C
:1034C000F212BDCFC3010E947B36F82E580144E0B2
:1034D000A40EB11CC80103960E947B36282FFF2042
:1034E00009F4F0C0882309F4EDC02150330B4FEFED
:1034F000429FC001439F900D1124AF2DA150BB0BE3
:103500008A0F9B1F019708F49ACFEFE9FFE03197EC
:10351000F1F700C00000F6CFC4010E94D6188FCF8B
:10352000011527E5120708F475C2011548E51407CF
:1035300008F097C0780157E5F51A6FE473E08E2D17
:103540000E949D17892B31F5C70144E0880F991F10
:103550004A95E1F7FC01E35AFC4F2281213009F042
:1035600064C020914F0330915003232B99F0209198
:10357000510330915203232B69F020915303309172
:1035800054034091550350915603242B352B232B84
:1035900009F455C0F801FF2734E0EE0FFF1F3A95FC
:1035A000E1F7CF01835A9C4F7C01D60115968C918F
:1035B000EE59FC4F908180FB90F99083882309F4A9
:1035C0005DC00E94980B90935C0380935B03F701AE
:1035D00082818F5F82838091CB039091C903892B75
:1035E00083838091C803848346815781668577856C
:1035F000C7010E94D90AD70115968C9181FD3BC065
:10360000902F812F9093590380935A03F60195814F
:10361000911191C00631FCE71F0709F07EC180912E
:10362000BE03811176C189E275C1223009F0B2CFA3
:103630002091530330915403232B09F4ABCFFC01A9
:10364000EE59FC4F20812E7F2083835A9C4F0E948D
:103650008516A0CF980137552F3F310509F008F4A2
:1036600099CFF801E851FC47E730F10578F6EF51C2
:10367000F94C0C94DF3590E080E0C4CFF70144852D
:10368000558566857785C7010E94D90AD7011596A9
:103690008C9181FFBBCFC7010E94681680915903AE
:1036A00090915A030817190709F0B0CF10925A03E6
:1036B00010925903ABCF06E221EE41EE6AE17CE7BE
:1036C0000E94CF178091CC038770882361F0D601C8
:1036D00015968C91882339F08091590482FF03C09C
:1036E00082E00E941C042496EEE00C940C3607E263
:1036F00025EE45EE6BE17CE7E3CF06E221EE40EEFE
:1037000068E17CE7DDCF07E225EE44EE69E17CE786
:10371000D7CF06E221EE42EE6CE17CE7D1CF07E2A3
:1037200025EE46EE6DE17CE7CBCF08E221E045EEE9
:103730006EE17CE7C5CF1092BD039801305723326C
:103740003105B0F006312CE7120709F041C1809134
:10375000C9038A7A91E0811101C090E09093BE0381
:103760008111D5C089E20E94370B0E944C12AACF6A
:1037700084E090E00E94833690935904809358042B
:10378000F801E150F047E232F10520F4E851F94C3C
:103790000C94DF35809158048160809358046091C7
:1037A00058047091590484E090E00E94B7360E945A
:1037B0006C1388CF80915904886080935904EFCFAF
:1037C000809158048260E9CF809158048460E5CFED
:1037D000809158048860E1CF809159048160EDCFD9
:1037E000809159048260E9CF809158048061D5CFDF
:1037F000809158048062D1CF809158048064CDCFED
:103800000E946C13809158048068C7CF809158043F
:103810008C60C3CF809159048360CFCF80915804CE
:103820008E7FBBCF80915904877FC7CF809158048A
:103830008D7FB3CF809158048B7FAFCF8091580498
:10384000877FABCF809159048E7FB7CF8091590489
:103850008D7FB3CF809158048F7E9FCF8091580485
:103860008F7D9BCF809158048F7B97CF0E946C13E4
:10387000809158048F7791CF80915804837F8DCFAA
:10388000809159048C7F99CF8091580482FB9927AD
:1038900090F921E0922790FB82F990FB83F97DCF8C
:1038A00080915904982F909591708E7F892B90FB71
:1038B00081F983CF90915804892F8F7B96FF806484
:1038C0006CCF0E946C1390915804892F97FB87F955
:1038D000805863CF61E08EE090E00E9499365FCF20
:1038E00060E0F9CF90915804892F8F7E94FF80611A
:1038F00054CF90915804892F8E7F90FF81604DCFD7
:1039000090915904892F877F93FF886056CF85E374
:103910002ACF85E30E946B0B28CF8091C903827266
:10392000F801E052F847E531F10508F051C0E65FD3
:10393000F84C0C94DF358091C00391E08927809387
:10394000C003109212018091BF0381608093BF0376
:10395000B9CE4BE859E06FE779E00E94520AB2CE47
:103960004FE759E06BE879E0F8CF45EB59E06AEAB8
:1039700079E0F3CF4AEA59E065EB79E0EECF4EEC1F
:1039800059E060EC79E0E9CF40EC59E06EEC79E089
:10399000E4CF4AEE59E06CED79E0DFCF4CED59E031
:1039A0006AEE79E0DACF46E05AE068EF79E0D5CF09
:1039B00048EF59E066E07AE0D0CF61E081E00E9414
:1039C000600980CE61E084E0FACF61E08AE0F7CF61
:1039D00007374CE7140709F476C082E008375CE744
:1039E000150709F471C09923A9F00A358CE7180767
:1039F00009F49EC008F075C00130ACE71A0709F45D
:103A000095C00330BCE71B0709F48AC001151C47A9
:103A100009F479C0F60187819085009709F48CC07C
:103A20000E943E058C01F601B580A680A2942FE08D
:103A3000A2228091CC038770882301F1EB2CBB205C
:103A4000F1F0812F807F803461F080E2800F883038
:103A5000A8F0812F807E803221F4023078F0AA20F5
:103A600069F08091590482FF09C082E00E941C0421
:103A70008091CC038770EE24E3948111E12C812F97
:103A800082958F70883009F475C108F088C0843041
:103A900008F069C0F12FFF70FF2E823008F490C04B
:103AA000107F103219F0F29480EFF822002309F40D
:103AB000BEC0013009F423C1BB2009F42FC1AA20E4
:103AC00009F4D3C093C081E0992341F00E944803D8
:103AD00043E062E081E00E94F103F4CD0E945403D0
:103AE000F7CF0B35FCE71F0729F10C351C4709F010
:103AF00091CF8091590482FB882780F991E0892732
:103B00000E94851087CF0E946C134FEF54E38CE026
:103B1000415050408040E1F700C000000E94370C47
:103B20006FEF7FEF80E090E00E94B7360E948E1327
:103B300081E0E6CF80E0E4CF8581E080F1808823DA
:103B400069F0C7010E94A811182F682FC7010E94B1
:103B5000BB03B701812F0E947A1162CFC7010E9477
:103B6000D603182FF6CF843009F4E9C0EE2009F40B
:103B7000D7C18091CC0380FDD3C1F6011582869513
:103B8000869586950E944803C6010E9496198091E9
:103B9000CC038695869586950E945403C1C18930D1
:103BA00009F457C18A5F8F70823000F7023F09F035
:103BB00061C1812F8F71B1105AC10E94480307C1A2
:103BC000103118F0F29490EFF922BB20B9F0FF20E9
:103BD00069F080E2800F883010F0011109C08091F7
:103BE000C9038F298093C9030E944C12802F2FC0D4
:103BF0008091CB038F298093CB03F6CF802F0E9437
:103C00000413FF2009F4B2CF80E2800F883010F057
:103C1000011104C08F2D0E94380406C0F0948091D9
:103C2000CB038F218093CB030E944C129FCF8091B6
:103C3000590482FD16C0BB2069F0FF2039F0809145
:103C4000C9038F298093C9030E944C1280E00E940F
:103C50009E128CCF80E00E940413FF2009F486CFCF
:103C6000D9CFBB2071F1A11004C08F2D0E94461343
:103C70007DCF21E0A21211C01091C8038F2D8123A6
:103C8000F81609F473CF0E94980B9093D003809399
:103C9000CF031F291093C80369CF45E0A41266CF54
:103CA0008F2D0E9446138F2D0E94F50B8091CA0321
:103CB0009F2D9823F91609F459CF8F298093CA03B1
:103CC00055CFA11012C08F2D0E9450138F2D0E942E
:103CD000F50B8091CA039F2D9823992309F446CFB1
:103CE000F094F822F092CA0341CF51E0A5123ECFE2
:103CF0008091C9038F21882309F438CFE4CFBB20FA
:103D000029F085E08A1508F431CFAFCF94E09A15F9
:103D100008F42CCF8F2D0E94501328CFAA20D1F366
:103D2000093349F4AFEFB7EEE3E0A150B040E04013
:103D3000E1F700C00000802F0E94041317CF812FED
:103D4000869586958370882361F0813009F00ECFC7
:103D5000C8019370B11002C080E090E00E94110B86
:103D600005CFC8019370B11002C080E090E00E94BE
:103D7000EB0AFCCE812F8370811134C0B11027C0B3
:103D8000402F429546954770440F440F802F8F7007
:103D9000042E01C0880F0A94EAF70071002341F055
:103DA0002FE030E001C0220F4A95EAF7022F00957C
:103DB000169516951370123081F0133061F0209132
:103DC0005604113039F0802B82230E9442030E9456
:103DD000DE0ACCCE822B802BF8CF802B909156041C
:103DE0008927F3CFBB2051F110FFF1CF402F42952F
:103DF00046954770440F440F802F8F70042E01C0EA
:103E0000880F0A94EAF70071002341F02FE030E0B8
:103E100001C0220F4A95EAF7022F009516951695D4
:103E20001370123089F0133069F02091570411306B
:103E300041F0802B82230E944503C9CF823038F2A3
:103E4000D5CF822B802BF7CF802B909157048927D9
:103E5000F2CF1F70BB2039F0812F0E944803802FC2
:103E60000E944613B4CF802F0E945013812F0E94CE
:103E70005403ADCF033F70F4003FB9F0013FB9F1F7
:103E8000BB2009F46DC0AA2009F467C0802F0E94EE
:103E90009E129DCF033FD9F0043F29F1B110F3CF1B
:103EA000A1106CC0812F8F71E2CFBB2069F0F4E0CC
:103EB000FA1508F48CCF1F7181E090E0012E01C04B
:103EC000880F0A94EAF7C1CF25E0A216F2CF80E06E
:103ED000BB2009F4B0CF1F7181E0012E01C0880F13
:103EE0000A94EAF7A8CF8091590482FD06C0812F79
:103EF0008F71BB2009F4BBCF60CEBB20F9F080915D
:103F0000CC038770843089F41092CC031092CE03D6
:103F10001092CD03812F8F710E9454030E94DE0AFC
:103F200060E0C6010E94D311DECB44E04A15B0F335
:103F300063E0812F8F710E94DE0BF0CF54E05A15A1
:103F400040F41092CC031092CE031092CD0364E0A3
:103F5000F0CF81E00E941C04E1CF812F8F712DCE24
:103F6000AA2009F49FCF093349F48FEF97EEA3E01D
:103F700081509040A040E1F700C00000802F0E94D7
:103F8000041325CFA0E0B0E0E8ECFFE10C94F73596
:103F900080914603803108F049C080914503882311
:103FA00009F444C0C091F70289E0D82E8091F6024E
:103FB0008C17E1F1EC2EF12CDC9EE0011124FE01C6
:103FC000E850FD4F84818823B1F1918180914103B4
:103FD000981331C090818091400398132CC0858143
:103FE000811129C002811381809142039091430382
:103FF000081B190B60E080E493E00E94D3110E943B
:10400000B21708171907B8F4809146038F708061C2
:1040100080934603C250DD4F88818F708061888312
:1040200080E493E00E9496190E941204CDB7DEB797
:10403000E7E00C941336E7012196C770B7CFAFE0E5
:10404000B0E0E5E2F0E20C94EF358C0186E0F80197
:10405000DE011A9601900D928A95E1F7F801C08071
:104060005180F580A280B380E48080E4882E83E0D4
:10407000982E80914403811118C0EE2099F0FF2002
:1040800009F47AC1C8010E940612882309F474C198
:1040900089E0F801A0E4B3E001900D928A95E1F780
:1040A0000E94C21FFF24F39466C0D0904503809104
:1040B0004203909143033501681A790A60E080E475
:1040C00093E0DD2009F40CC10E94D3110E94B217C5
:1040D0006816790608F0B6C0EE2021F3E09046039A
:1040E00090914103F8018181FFE0FE1508F464C05E
:1040F000981320C090914003F801808198131AC052
:10410000209147033091480387819085281739070C
:1041100089F4F1104BC08E2D8F708061809346031F
:1041200080E493E00E94961980914603F80186830B
:10413000F12C21C0F1103AC040E0652D8C2D0E9479
:10414000D70F40E0652D8C2D0E94D70FF82E8111DE
:10415000EFCF8A859B850E94F711292F22952F701A
:10416000903470F49F702230A0F09923B1F0F801E0
:104170009681903190F48F2D2F96EFE00C940B36B2
:104180002A5F2F70223068F0C8010E949619FD2C1A
:10419000F2CF992311F0882371F3805E883058F3B1
:1041A000F3CF803F40F3815F8230F9CF80914603A7
:1041B000816080934603BCCF98131EC0909140034A
:1041C000F8018081981318C020914703309148036B
:1041D000878190852817390779F4F1100DC0E682A0
:1041E000C8010E94961989E0F801A0E4B3E00190AB
:1041F0000D928A95E1F756CFC8010E9406128823D6
:1042000009F4BAC0FF2009F4B7C080914603803298
:1042100008F43ECF80914003909141039A838983B3
:10422000BC82AB82809144038D831E82EF82809199
:1042300047039091480399878887CE0101960E9491
:10424000961926CFD0904603FFE0FD1550F080E48C
:1042500093E00E94961989E0F40111928A95E9F79A
:1042600067CFEE2009F41ECF90914103F8018181C0
:1042700098131AC0909140038081981315C0209123
:10428000470330914803878190852817390761F4E7
:10429000F1100AC0D682C8010E94961989E0F40183
:1042A00011928A95E9F7FECEC8010E940612882372
:1042B00009F462C0FF2009F45FC080914603803298
:1042C00008F4E6CE80914003909141039A8389835C
:1042D000BC82AB82809144038D831E82DF82A7CF94
:1042E0000E94D3110E94B2176816790608F0B3CF66
:1042F000EE2009F4D7CEFF2009F43EC0909141038F
:10430000F801818198132EC0909140038081981309
:1043100029C0209147033091480387819085281751
:10432000390701F58091420390914303A81AB90A15
:10433000F8ECAF16B10408F056CF8091460380FD2B
:1043400052CF803108F44FCFF8018683982F907FA9
:10435000903F09F445CF982F907F905F8F70892B05
:1043600086833ECFC8010E940612811191CE8091B2
:104370004603816080934603C8010E94961992CE3D
:10438000A2E1B0E0E6ECF1E20C94FA350A871B8773
:104390002C873D874E875F87688B798B8A8BCE0110
:1043A0000A960E941F2081112BC089E0FE013A96D7
:1043B000DE01119601900D928A95E1F72091F602A7
:1043C0004091F7028E858823D9F030E0C90101962B
:1043D0008770992750E084179507E9F099E0929F3C
:1043E000D001939FB00D1124A850BD4FFE0131960E
:1043F00001900D929A95E1F78093F6020E941204C3
:1044000019E08091F7029091F602891312C062962A
:10441000E4E00C9416360E946C131092F60210928F
:10442000F70289E0E0E4F3E0DF011D928A95E9F705
:10443000E7CF189FC001112488509D4F0E941F2074
:10444000882329F38091F70290E0019687709927DD
:104450008093F702D6CFEF92FF920F931F93CF93E3
:10446000DF9380915304E091FE01CDE0811131C0D2
:10447000CDB7DEB7E6E00C941436D1E0DE0FD09372
:10448000FE01EE2EF12CCE9FF0011124E551FC4FE0
:1044900084818823E9F087819085892B21F48185A7
:1044A0009285019659F400811181228133814481E2
:1044B00055816681778180850E94C021CE9DF00163
:1044C000CF9DF00D1124E551FC4F14821092CB03C7
:1044D000ED2F80915304E81780F21092530410924C
:1044E000FE01C6CFA4E0B0E0E8E7F2E20C94ED35BF
:1044F0002091EA03298317E0912E01E010E08DE07E
:10450000382E94E0492E552453948091E9039981E3
:10451000891308C00E942B220E94980A2496E1E188
:104520000C9409365981452F50E05C834B83FA0186
:10453000EE0FFF1FE152FC4F80819181989ED001C8
:10454000999EB00D1124FD01EF52FC4FFA83E983CF
:10455000248121115DC070905304EBEEF3E060E024
:1045600070E0812C671508F051C0A384B484A98140
:10457000BA81CD90DC904FEF5FEF612C262D30E0BB
:104580007901EE0CFF1CEC0CFD1CD701ED90FC90AA
:10459000E114F10439F0AE14BF0409F09A016394F8
:1045A000A901ECCF4F3F5407E1F1D80102C0AA0F97
:1045B000BB1F4A95E2F78A2AA801062C02C0440FC5
:1045C000551F0A94E2F79A0121503109482D50E015
:1045D0002417350729F5369EF001379EF00D11247A
:1045E000E551FC4F989ED001999EB00D1124AF5219
:1045F000BC4F12962D913C911397308727834482AC
:10460000108211829287818715965C920E94AD0A72
:104610008B819C8101969A8389838370898375CF6E
:1046200014826F5F7F4F3D969DCF1092550410927C
:104630005404109213018091E9038093EA030E94CD
:10464000980A0E942B220895AEE1B0E0EAE2F3E27C
:104650000C94EC354B8B5C8B6D8B7E8B8F8BA92EEA
:10466000988FB92E91111092CB03188A198A1A8A41
:1046700086E0FE017396DE011A9601900D928A95EE
:10468000E1F78091590482FF1FC00E94980B20918E
:10469000CD033091CE03821B930B8838934138F0C1
:1046A0008091CC0382FD03C082E00E941C040E9422
:1046B000980B2091CF033091D003821B930B883845
:1046C000934110F00E9440048E85882379F061E0C8
:1046D000CE010A960E94D3116C0180354CE79407F5
:1046E00089F4BB2011F181E0809313010A851B85B9
:1046F0002C853D854E855F85688979898A890E94E8
:10470000C021C3C081355CE7950729F4BB2069F05F
:104710000E941523EBCF82359C4739F4BB2029F04A
:10472000809113018111F4CFDECF61EDE62E63E0BD
:10473000F62E912C412C512C22242394312CD7017C
:104740008D919C9166246A9477247A9460E0262F58
:1047500030E0F901EE0FFF1FE80FF91F4081518192
:104760004115510559F0C416D50609F093016F5F44
:104770003901EDCF44244394512CE1CFBFEF6B16A8
:104780007B0609F470C1F7019481458186819111FE
:10479000FFC020911301222309F40DC1BB2009F4AD
:1047A0000AC1411115C021E030E0062C01C0220FE2
:1047B0000A94EAF7822B86838091E7039091E803BD
:1047C000C29730F482E390E09093E8038093E7038C
:1047D000910102C0220F331F6A95E2F7215031097F
:1047E000D70116968C9190E02817390779F48091BB
:1047F000540490915504009709F44BC00E94280C72
:10480000C39708F446C081E0F70184832A2D922AD9
:10481000B7E0EB0EF11C4114510409F4ABCFBB20FF
:1048200009F435C1992009F420C10E94980B909396
:1048300055048093540480915304883030F591E0FE
:10484000980F9093530499E0FE013A96DE01119679
:1048500001900D929A95E1F7EDE08E9FC001112431
:1048600085519C4F29E0FE013196DC0101900D92AB
:104870002A95E1F72FEF3FEFDC011A963C932E9338
:1048800019971C96DC92CE921B976E96E2E10C94DF
:1048900008369091EA038091E903292FE0E0F0E0E7
:1048A000B7E08B2EED8EFE8E981314C02093EA0392
:1048B000EE15FF0509F4AACF90E0FC01EE0FFF1FF3
:1048C000E152FC4F51824082019683709927809378
:1048D000E9039CCF092F10E0F801EE0FFF1FE15212
:1048E000FC4F60817181869ED001879EB00D11249E
:1048F000AF52BC4F4D915C9111975C8F4B8F50E044
:1049000030E040E0E42FF0E0EE0FFF1F6B8D7C8D78
:10491000E60FF71F6080718061147104E1F0F70108
:104920000190F081E02DFA8FE98F30E005C0661626
:10493000770609F45A2D3F5FE32FF0E0EE0FFF1FDB
:10494000698D7A8DE60FF71F6081718161157105A0
:1049500071F74F5FD7CF5523C1F0ED8DFE8D341722
:1049600008F0FD0131E03483EE15FF0509F49ECF18
:10497000921305C0AE17BF0711F42F5F2370A80173
:104980004F5F5F4F942F93708FCFE0E0F0E0F7CF51
:1049900090E0411130C0A10102C0440F551F6A953B
:1049A000E2F79A01215031092817390799F4C20119
:1049B0000E94AD0A0FC090E041111DC041E050E0DF
:1049C00002C0440F551F6A95E2F74150510948173C
:1049D000590709F020E0F10102C0EE0FFF1F6A94B1
:1049E000E2F73F016094D70116968C9116978621C5
:1049F00016968C930CCF9C01062C02C035952795FA
:104A00000A94E2F7AC014150510984239523892B84
:104A100041F520FF26C0D70112968D919C91892BDC
:104A2000D9F087E0FE013196DF011D928A95E9F702
:104A30000E94980B9C018B839C8384E08D83F701FB
:104A400092818381792F9887898709811A8144E02F
:104A50005E816F810E94C021D70115961C9221E0D2
:104A6000BACF2170B8CF20E0D2CE9091E9038091E7
:104A7000EA03981309C00E942B2210925504109249
:104A800054040E94980A32CE0E9472222FCE909136
:104A9000EA038091E903981729F00E94722291108D
:104AA000F4CE24CE0E942B2210925504109254046E
:104AB0000E94980AF4CFA6E0B0E0E1E6F5E20C949B
:104AC000FA350E94980B8C018091CA029091CB021A
:104AD0008017910779F019821A820E94980BBC0105
:104AE00049815A8180E090E00E9424231093CB02F8
:104AF0000093CA022696E4E00C941636A6E0B0E0D5
:104B0000E4E8F5E20C94FA358C019093C7028093A7
:104B1000C602011580E21807B0F4C801805E910951
:104B2000089728F067E573E10115110511F466E4B3
:104B300073E1C8010E940403802F0E949E122696F2
:104B4000E4E00C94163680EF89838A830E94980BE8
:104B50008160BC0149815A8181E091E00E94242357
:104B6000EECFA6E0B0E0E7EBF5E20C94FA358C016D
:104B70009093C7028093C602011580E21807B0F433
:104B8000802F0E940413C801805E9109089728F0C5
:104B900061E673E10115110511F460E573E1C801E7
:104BA0000E9404032696E4E00C94163680EF898375
:104BB0008A830E94980B8160BC0149815A8181E0FF
:104BC00090E00E942423EECFCF93DF93D82FC92FFC
:104BD0000E947E258D2F9C2F0E94B125DF91CF91C1
:104BE00008950F931F93CF93DF938C01862F6FE46B
:104BF00073E00E949D17892BB1F4C0914F03D091AF
:104C00005003209781F0F8018281833051F4CE0166
:104C10000E94E425CE010E94E425CE010E94E425F5
:104C200002C08430D0F7DF91CF911F910F9108958A
:104C30000F931F93CF93DF938C01EB016FE473E02D
:104C40008C2F0E949D17892B09F05AC0FE01FF2767
:104C5000D80112968C911297ED5EFD4F8130A9F428
:104C600015968C9182FD51C080FF4FC082E08083F9
:104C700080915103909152030097B9F480914F03B2
:104C8000909150030097E1F110C08230B9F515966C
:104C90008C9182FD28C080FD0BC083E080838091D1
:104CA000530390915403009701F10E947E2528C080
:104CB00084E0808380915503909156030097A9F773
:104CC00080914F0390915003009711F10E94E425C9
:104CD0008091510390915203009739F780914F03CF
:104CE00090915003E2CF85E0808380914F039091B3
:104CF0005003009729F00E94E425F0CF86E08083DE
:104D0000DF91CF911F910F91089581E08083B6CFFD
:104D10008091510390915203B5CF0F931F93CF937E
:104D2000DF938C01EB016FE473E08C2F0E949D17E1
:104D3000892B71F4DD27CD5EDD4F8881F801128269
:104D400018828330F1F048F4813059F0823081F0DC
:104D5000DF91CF911F910F9108958430B9F0853084
:104D6000B9F780914F0390915003009789F306C0E3
:104D70008091510390915203009799F30E94B125BD
:104D8000E7CF8091530390915403F6CF8091550360
:104D900090915603009791F720914F033091500363
:104DA000809151039091520321153105F1F2009742
:104DB00029F7C901E3CF48E050E067E170E080ECFB
:104DC00093E00E9489361092BF030895A0E0B0E0FE
:104DD000ECEEF6E20C94F535C82F809110018C139F
:104DE00025C02091C003237030E040910F0150E0B6
:104DF00081E02417350709F480E081708093020177
:104E00008091C50390910101981739F080930101B9
:104E100040E060E080E00E945609CA3108F025C3F6
:104E2000EC2FF0E0E15EF84C0C94DF3581E0E5CF4B
:104E300080910201882309F411C340E060E080E022
:104E40000E945609809100018F5F8093000182E0EB
:104E50008093120180910201882309F404C3CDB725
:104E6000DEB7E9E00C941136809100010E945909E7
:104E7000082FD92F6091C1037091C2038091C303A1
:104E80000E947206F62EE72ED82E10E00D1730F095
:104E900081E0D63008F4D0C080E0CEC0F801EB59F4
:104EA000FE4F8489909101018923882331F02D2DB3
:104EB0004F2D6E2DC8010E9453090F5F1F4FE6CF83
:104EC000809100010E945909D92FE090C203D0902F
:104ED000C3032091C40360E4F62E3F2D329F312D91
:104EE0001124F32E082F10E00D1790F6F801EB595E
:104EF000FE4F84899091010189238823B9F0F8013C
:104F0000EE0FFF1FEB59FE4F818582958F706091E8
:104F1000C1038F9D600D11247E2D8D2D0E94720680
:104F2000462F672F282FC8010E9453090F5F1F4F7C
:104F3000DBCF809100010E945909D92FD090C20384
:104F4000C090C3033091C40320E4239F212D11247A
:104F5000082F10E0E22EF12C0D1708F099CFF80180
:104F6000EB59FE4F84899091010189238823E9F050
:104F7000F801EE0FFF1FEB59FE4F20852E9DC0015B
:104F80002F9D900D112445E0959587954A95E1F761
:104F90006091C103680F7D2D8C2D0E947206462FF3
:104FA000672F282FC8010E9453090F5F1F4FD4CFCE
:104FB000809100010E945909082FD92FF090C10358
:104FC0001091C203E090C3036091C4036695669597
:104FD000669580914002909141020E94FA060E94DB
:104FE0004907805887FD8195880F282F3E2D239FE4
:104FF000212D1124822F6F2D712F0E947206F62E03
:10500000E72ED82E10E00D1708F042CFF801EB592B
:10501000FE4F8489909101018923882331F02D2D41
:105020004F2D6E2DC8010E9453090F5F1F4FEBCF0C
:1050300087E997E00E94140D909100019F5F909383
:10504000000181110CCF82E0809312018091020156
:10505000811105CFCC2301CF83EC97E0EBCF81EF1B
:1050600097E00E94590DE8CF8CE098E0FACF87E2F4
:1050700098E0E0CF89E298E0DDCF82E398E0DACFF4
:105080008BE398E0D7CF84E598E0EBCF88E698E013
:105090000E94C00DD1CF86E998E0FACF809100013F
:1050A0000E945909D92F90910201911120C060915D
:1050B000C40320E1620F08F46FEF809140029091E9
:1050C00041020E94FA0665E070E00E949835892B43
:1050D00009F0DECE0E94340796E0899F90011124EA
:1050E000832F932F990F990B0E94170ED1CE082F63
:1050F00010E0ED2EF12C0E151F050CF0C9CEC801E5
:105100000E94170E0F5F1F4FF6CF809100010E9483
:105110005909082FD92FE090C203F090C3031091D2
:10512000C1036091C40366956695669580914002BF
:10513000909141020E94FA060E94490720E8280F38
:1051400027FD2195220F3CE0239F212D1124612F63
:10515000620F7E2D8F2D0E947206F62EE72ED82E1E
:1051600010E00D1708F094CEF801EB59FE4F84893A
:10517000909101018923882331F02D2D4F2D6E2D23
:10518000C8010E9453090F5F1F4FEBCF80910001B0
:105190000E945909D92F40914002509141026091DB
:1051A0004202709143028091340290913502A091A5
:1051B0003602B091370284179507A607B70708F0A3
:1051C00067CE0E943407E6E08E9F80011124012FF4
:1051D000110F110BF801EB59FE4F848990910101D9
:1051E0008923882309F454CE0E94340781FD3BC0F3
:1051F0000E943407F82E0E943407F0E88F9FC00108
:1052000011247FE7790F8091C3036F2D0E947206EE
:10521000462F672F282FC8010E9453092091C403ED
:1052200030E1230F08F42FEF60E1822F90E00E941D
:10523000FA06BC0184EF91E00E949835809140020B
:1052400090914102A0914202B0914302860F971FB4
:10525000A11DB11D8093340290933502A0933602B4
:10526000B093370215CE80E070E0F12CCECF809164
:105270000201882329F040E060E080E00E945609A6
:10528000809100010E945909D92F4091400250910C
:105290004102609142027091430280913C029091E0
:1052A0003D02A0913E02B0913F0284179507A607E8
:1052B000B70708F0EDCD6091C1037091C2038091F2
:1052C000C3030E947206D62EC72EB82E98E3E92E8D
:1052D00092E0F92E05E611E0F8013081832F90E08D
:1052E000F701208121110BC020E040E060E00E9426
:1052F0005309F801838120E040E060E00AC02B2DD3
:105300004D2D6C2D0E945309F80183812B2D4D2DBD
:105310006C2D90E00E945309F70121812083F80150
:105320003181832F90E021110BC020E040E060E04C
:105330000E945309F801828120E040E060E00AC049
:105340002B2D4D2D6C2D0E945309F80182812B2DA0
:105350004D2D6C2D90E00E9453090E9434078370FC
:1053600091E0811190E0F7019183F2E0EF0EF11CE2
:105370000C5F1F4F21E00D36120709F0ADCF2091D1
:10538000C40330E1230F08F42FEF60E1822F90E097
:105390000E94FA06BC0188EB9BE00E949835809140
:1053A000400290914102A0914202B0914302860FC7
:1053B000971FA11DB11D80933C0290933D02A093C5
:1053C0003E02B0933F0264CD85EC98E00E943E0E11
:1053D00033CE8CEC98E0FACF8091460221E0382F52
:1053E000321B08F430E0832F63ED78E00E94AC0EAE
:1053F00023CE8091460221E0382F321B08F430E0A2
:10540000832F6BE079E0F2CF8091460221E0382FC4
:10541000321B08F430E0832F6DE379E0E7CF809111
:1054200000010E945909D92F082F10E00D1708F02C
:105430002FCDF801EE0FFF1FE00FF11FE155FD4FDB
:105440006081718182810E947206462F672F282F0A
:10545000C8010E9453090F5F1F4FE8CF80910001E0
:105460008F5F8093000183E006C0809100018F5F11
:105470008093000182E080931201F1CCA2E1B0E0C0
:10548000E4E4FAE20C94EE35C0902C02D0902D02A8
:10549000E0902E02F0902F028FB7F89440903002E7
:1054A0005090310260903202709033028FBF5301EE
:1054B00042018C189D08AE08BF080E940B0C609337
:1054C0002C0270932D0280932E0290932F02409114
:1054D0007202E2E7F2E0242F30E05FEFC50ED51E46
:1054E000E11CF11CC418D508E608F70843132FC0C7
:1054F000209372022091700210E0211109C02091C6
:10550000C003122F1370112319F0122F1695169540
:1055100020911201223009F4BAC060F5211131C086
:105520001092000160934002709341028093420206
:105530009093430289E2E2E7F2E0A6E4B2E0019050
:105540000D928A95E1F781E08093120116C0A18D3A
:10555000B28D2D01612C712CC414D504E604F7041E
:1055600020F421503F5F3296C1CFA80DB91DB28FF4
:10557000A18FF8CF233009F495C06296E0E10C9436
:105580000A36812F0E94E6261123B9F3809100018B
:1055900081500E945909982E892E809157040E94AB
:1055A0003003182F82E1E4E1F1E0DE011196019071
:1055B0000D928A95E1F761E4E62E61E0F62EA12CCA
:1055C000670160E0F601B1906F0101E0060FFFEFA7
:1055D000BF1611F0B91458F4602F033099F783E027
:1055E000E80EF11CA110C9CFAA24A394E9CFB814E6
:1055F00098F77A2D812F0E947A119C019054811581
:105600009041B0F5232F33272F7033272B303105EE
:1056100019F7112309F3812F90E0FC01EE0FFF1F12
:10562000E80FF91F41E050E04C0F5D1FE40FF51F3C
:10563000828134E6389FC001112466246A94712C5B
:10564000B3010E94AC35262F8181389FC0011124FF
:10565000B3010E94AC35462F8081389FC0011124D0
:10566000B3010E94AC358B2D90E00E945309B4CF5A
:10567000203A52E5350728F42115324508F4ACCF1D
:10568000C8CF205C32452032310518F2A5CF1093E7
:1056900010018091C003837080930F010E94F60F68
:1056A00083E052CF8091BF0381110E94DB2640919D
:1056B00040025091410260914202709143022FB723
:1056C000F8948091300290913102A0913202B09111
:1056D00033022FBF841B950BA60BB70B4097A10578
:1056E000B10508F44ACF1092120147CFCDB7DEB70B
:1056F000EB970FB6F894DEBF0FBECDBF85B78068BD
:1057000085BF85B7806885BF84B7877F84BF0FB6A4
:10571000F894A89580916000886180936000109251
:1057200060000FBE80E890E00FB6F89480936100AF
:10573000909361000FBE87E596E09093B701809348
:10574000B6010E94660A0E944E170E94F50C0E9444
:105750007C0F8091E20084608093E20078948091D5
:10576000C502882399F08091E9001091EC0017950B
:10577000112717958F70182B1092E9008091E8007F
:1057800083FD0E94A4131F701093E90082E084BD82
:1057900093E095BD9AEF97BD80936E000E943312FF
:1057A000811102C00E943E17E1EAF2E088E0DF01C9
:1057B0001D928A95E9F781E08093A00260E080E085
:1057C0000E947E0A61E080E00E947E0AEFE8F1E03C
:1057D0003197F1F700C0000010E08091A002181787
:1057E00008F4AFC086EF0E94590682E30E94590672
:1057F00087EF0E94590681E30E94590683E30E94C5
:10580000590684E30E9459061092C2021092C10206
:10581000109245021092440280E090E00E9483368C
:10582000853E9E4F21F40E943312811163C065EEC4
:105830007EEF80E090E00E94B73660E082E090E08A
:105840000E94993681E08093560461E083E090E005
:105850000E94993660E074E184E090E00E94B736DF
:1058600060E086E090E00E94993660E087E090E09A
:105870000E94993640E050E0BA0188E090E00E9432
:10588000AB3660E083E290E00E94993660E08CE005
:1058900090E00E94993660E08DE090E00E94993699
:1058A00019821A821B821C821D821E821F82188608
:1058B00048E050E067E170E0CE0101960E94893631
:1058C00040E050E0BA018FE190E00E94AB3680E00A
:1058D0000E94FA100E943E1740E050E0BA018FE0AB
:1058E00090E00E94AB3640E050E0BA0183E190E0E6
:1058F0000E94AB3682E090E00E947B3680939B0250
:1059000084E090E00E948336909359048093580479
:105910000E9436182FEF36E741E0215030404040DA
:10592000E1F700C000000E9436188091C10280FF9C
:105930001AC06FEF7FEF80E090E00E94B7360E94C0
:10594000370C60E0812F0E948F0A082F61E0812FC1
:105950000E948F0AE12FF0E0E156FD4F880F802B67
:1059600080831F5F3ACF83E090E00E947B360E94E5
:1059700042030E94140A1092460240E150E06FEF89
:1059800070E08FE592E00E9464361092720240E16E
:1059900050E06FEF70E08BE892E00E94643681E0A7
:1059A0008093BF0348E050E067E170E080EC93E053
:1059B0000E946B361092BF038091C0038430B8F40C
:1059C00081E38093C0038091260190912701A091EB
:1059D00028018093C1039093C203A093C30388E27C
:1059E0008093C4038FEF8093C5030E94DB2685E07C
:1059F00091E09093ED028093EC028091C50213E058
:105A0000853009F4D4C00E9436189091C10280916B
:105A10009C029813D8C09091C20280919D02981365
:105A2000D2C00E945B25E0905903F0905A03E11424
:105A3000F10409F180915B0390915C030E94280CB2
:105A40008C01C7010E94B21780179107A0F48091C2
:105A5000590390915A03992714E0880F991F1A95BA
:105A6000E1F7FC01EE59FC4F208122FD04C0835A6E
:105A70009C4F0E94851680911301882301F180912B
:105A80005404909155040097D1F00E94280C209165
:105A9000E7033091E8032817390788F49091EA0367
:105AA0008091E903981709F446C10E94722210926E
:105AB000E8031092E70310925504109254040E94D8
:105AC0003E2A8091A902882351F01092A902809168
:105AD000A3028093A4028091A1028093A20200E01D
